{
  "_format": "hh-sol-artifact-1",
  "contractName": "BGTMinter",
  "sourceName": "contracts/BGTMinter.sol",
  "abi": [
    {
      "inputs": [
        {
          "internalType": "address",
          "name": "_token",
          "type": "address"
        },
        {
          "internalType": "uint256",
          "name": "_releaseTime",
          "type": "uint256"
        },
        {
          "internalType": "uint256",
          "name": "_monthlyLimit",
          "type": "uint256"
        }
      ],
      "stateMutability": "nonpayable",
      "type": "constructor"
    },
    {
      "anonymous": false,
      "inputs": [
        {
          "indexed": true,
          "internalType": "address",
          "name": "previousOwner",
          "type": "address"
        },
        {
          "indexed": true,
          "internalType": "address",
          "name": "newOwner",
          "type": "address"
        }
      ],
      "name": "OwnershipTransferred",
      "type": "event"
    },
    {
      "inputs": [],
      "name": "getMintedThisMonth",
      "outputs": [
        {
          "internalType": "uint256",
          "name": "",
          "type": "uint256"
        }
      ],
      "stateMutability": "view",
      "type": "function"
    },
    {
      "inputs": [
        {
          "internalType": "address",
          "name": "to",
          "type": "address"
        },
        {
          "internalType": "uint256",
          "name": "amount",
          "type": "uint256"
        }
      ],
      "name": "mint",
      "outputs": [],
      "stateMutability": "nonpayable",
      "type": "function"
    },
    {
      "inputs": [],
      "name": "mintedThisMonth",
      "outputs": [
        {
          "internalType": "uint256",
          "name": "",
          "type": "uint256"
        }
      ],
      "stateMutability": "view",
      "type": "function"
    },
    {
      "inputs": [],
      "name": "monthTime",
      "outputs": [
        {
          "internalType": "uint256",
          "name": "",
          "type": "uint256"
        }
      ],
      "stateMutability": "view",
      "type": "function"
    },
    {
      "inputs": [],
      "name": "monthlyLimit",
      "outputs": [
        {
          "internalType": "uint256",
          "name": "",
          "type": "uint256"
        }
      ],
      "stateMutability": "view",
      "type": "function"
    },
    {
      "inputs": [],
      "name": "owner",
      "outputs": [
        {
          "internalType": "address",
          "name": "",
          "type": "address"
        }
      ],
      "stateMutability": "view",
      "type": "function"
    },
    {
      "inputs": [],
      "name": "releaseTime",
      "outputs": [
        {
          "internalType": "uint256",
          "name": "",
          "type": "uint256"
        }
      ],
      "stateMutability": "view",
      "type": "function"
    },
    {
      "inputs": [],
      "name": "releaseWindow",
      "outputs": [
        {
          "internalType": "uint256",
          "name": "",
          "type": "uint256"
        }
      ],
      "stateMutability": "view",
      "type": "function"
    },
    {
      "inputs": [],
      "name": "renounceOwnership",
      "outputs": [],
      "stateMutability": "nonpayable",
      "type": "function"
    },
    {
      "inputs": [],
      "name": "token",
      "outputs": [
        {
          "internalType": "contract IBGRToken",
          "name": "",
          "type": "address"
        }
      ],
      "stateMutability": "view",
      "type": "function"
    },
    {
      "inputs": [
        {
          "internalType": "address",
          "name": "newOwner",
          "type": "address"
        }
      ],
      "name": "transferOwnership",
      "outputs": [],
      "stateMutability": "nonpayable",
      "type": "function"
    },
    {
      "inputs": [
        {
          "internalType": "uint256",
          "name": "newLimit",
          "type": "uint256"
        }
      ],
      "name": "updateMonthlyLimit",
      "outputs": [],
      "stateMutability": "nonpayable",
      "type": "function"
    },
    {
      "inputs": [
        {
          "internalType": "uint256",
          "name": "newTime",
          "type": "uint256"
        }
      ],
      "name": "updateReleaseTime",
      "outputs": [],
      "stateMutability": "nonpayable",
      "type": "function"
    }
  ],
  "bytecode": "0x60806040523480156200001157600080fd5b50604051620011453803806200114583398181016040528101906200003791906200030b565b620000576200004b6200019a60201b60201c565b620001a260201b60201c565b600073ffffffffffffffffffffffffffffffffffffffff168373ffffffffffffffffffffffffffffffffffffffff1603620000c9576040517f08c379a0000000000000000000000000000000000000000000000000000000008152600401620000c090620003c8565b60405180910390fd5b600081116200010f576040517f08c379a0000000000000000000000000000000000000000000000000000000008152600401620001069062000460565b60405180910390fd5b82600160006101000a81548173ffffffffffffffffffffffffffffffffffffffff021916908373ffffffffffffffffffffffffffffffffffffffff160217905550816002819055508142620001659190620004b1565b60038190555080600481905550600060058190555062278d00426200018b9190620004b1565b600681905550505050620004ec565b600033905090565b60008060009054906101000a900473ffffffffffffffffffffffffffffffffffffffff169050816000806101000a81548173ffffffffffffffffffffffffffffffffffffffff021916908373ffffffffffffffffffffffffffffffffffffffff1602179055508173ffffffffffffffffffffffffffffffffffffffff168173ffffffffffffffffffffffffffffffffffffffff167f8be0079c531659141344cd1fd0a4f28419497f9722a3daafe3b4186f6b6457e060405160405180910390a35050565b600080fd5b600073ffffffffffffffffffffffffffffffffffffffff82169050919050565b600062000298826200026b565b9050919050565b620002aa816200028b565b8114620002b657600080fd5b50565b600081519050620002ca816200029f565b92915050565b6000819050919050565b620002e581620002d0565b8114620002f157600080fd5b50565b6000815190506200030581620002da565b92915050565b60008060006060848603121562000327576200032662000266565b5b60006200033786828701620002b9565b93505060206200034a86828701620002f4565b92505060406200035d86828701620002f4565b9150509250925092565b600082825260208201905092915050565b7f546f6b656e20616464726573732063616e6e6f74206265207a65726f00000000600082015250565b6000620003b0601c8362000367565b9150620003bd8262000378565b602082019050919050565b60006020820190508181036000830152620003e381620003a1565b9050919050565b7f4d6f6e74686c79206c696d6974206d757374206265206772656174657220746860008201527f616e207a65726f00000000000000000000000000000000000000000000000000602082015250565b60006200044860278362000367565b91506200045582620003ea565b604082019050919050565b600060208201905081810360008301526200047b8162000439565b9050919050565b7f4e487b7100000000000000000000000000000000000000000000000000000000600052601160045260246000fd5b6000620004be82620002d0565b9150620004cb83620002d0565b9250828201905080821115620004e657620004e562000482565b5b92915050565b610c4980620004fc6000396000f3fe608060405234801561001057600080fd5b50600436106100cf5760003560e01c80637a7839a91161008c5780639403c6eb116100665780639403c6eb146101c8578063b91d4001146101e6578063f2fde38b14610204578063fc0c546a14610220576100cf565b80637a7839a914610170578063898b3de21461018e5780638da5cb5b146101aa576100cf565b806304b08678146100d45780630a6005da146100f057806340c10f191461010e578063592f03c41461012a578063602146ad14610148578063715018a614610166575b600080fd5b6100ee60048036038101906100e99190610702565b61023e565b005b6100f8610293565b604051610105919061073e565b60405180910390f35b610128600480360381019061012391906107b7565b610299565b005b610132610420565b60405161013f919061073e565b60405180910390f35b61015061042a565b60405161015d919061073e565b60405180910390f35b61016e610430565b005b610178610444565b604051610185919061073e565b60405180910390f35b6101a860048036038101906101a39190610702565b61044a565b005b6101b261049f565b6040516101bf9190610806565b60405180910390f35b6101d06104c8565b6040516101dd919061073e565b60405180910390f35b6101ee6104ce565b6040516101fb919061073e565b60405180910390f35b61021e60048036038101906102199190610821565b6104d4565b005b610228610557565b60405161023591906108ad565b60405180910390f35b61024661057d565b60008103610289576040517f08c379a000000000000000000000000000000000000000000000000000000000815260040161028090610925565b60405180910390fd5b8060048190555050565b60045481565b6102a161057d565b6003544210156102e6576040517f08c379a00000000000000000000000000000000000000000000000000000000081526004016102dd90610991565b60405180910390fd5b60065442111561030e57600060058190555062278d004261030791906109e0565b6006819055505b6004548160055461031f91906109e0565b1115610360576040517f08c379a000000000000000000000000000000000000000000000000000000000815260040161035790610a60565b60405180910390fd5b600160009054906101000a900473ffffffffffffffffffffffffffffffffffffffff1673ffffffffffffffffffffffffffffffffffffffff166340c10f1983836040518363ffffffff1660e01b81526004016103bd929190610a80565b600060405180830381600087803b1580156103d757600080fd5b505af11580156103eb573d6000803e3d6000fd5b50505050806005600082825461040191906109e0565b925050819055506002544261041691906109e0565b6003819055505050565b6000600554905090565b60065481565b61043861057d565b61044260006105fb565b565b60055481565b61045261057d565b60008103610495576040517f08c379a000000000000000000000000000000000000000000000000000000000815260040161048c90610af5565b60405180910390fd5b8060028190555050565b60008060009054906101000a900473ffffffffffffffffffffffffffffffffffffffff16905090565b60025481565b60035481565b6104dc61057d565b600073ffffffffffffffffffffffffffffffffffffffff168173ffffffffffffffffffffffffffffffffffffffff160361054b576040517f08c379a000000000000000000000000000000000000000000000000000000000815260040161054290610b87565b60405180910390fd5b610554816105fb565b50565b600160009054906101000a900473ffffffffffffffffffffffffffffffffffffffff1681565b6105856106bf565b73ffffffffffffffffffffffffffffffffffffffff166105a361049f565b73ffffffffffffffffffffffffffffffffffffffff16146105f9576040517f08c379a00000000000000000000000000000000000000000000000000000000081526004016105f090610bf3565b60405180910390fd5b565b60008060009054906101000a900473ffffffffffffffffffffffffffffffffffffffff169050816000806101000a81548173ffffffffffffffffffffffffffffffffffffffff021916908373ffffffffffffffffffffffffffffffffffffffff1602179055508173ffffffffffffffffffffffffffffffffffffffff168173ffffffffffffffffffffffffffffffffffffffff167f8be0079c531659141344cd1fd0a4f28419497f9722a3daafe3b4186f6b6457e060405160405180910390a35050565b600033905090565b600080fd5b6000819050919050565b6106df816106cc565b81146106ea57600080fd5b50565b6000813590506106fc816106d6565b92915050565b600060208284031215610718576107176106c7565b5b6000610726848285016106ed565b91505092915050565b610738816106cc565b82525050565b6000602082019050610753600083018461072f565b92915050565b600073ffffffffffffffffffffffffffffffffffffffff82169050919050565b600061078482610759565b9050919050565b61079481610779565b811461079f57600080fd5b50565b6000813590506107b18161078b565b92915050565b600080604083850312156107ce576107cd6106c7565b5b60006107dc858286016107a2565b92505060206107ed858286016106ed565b9150509250929050565b61080081610779565b82525050565b600060208201905061081b60008301846107f7565b92915050565b600060208284031215610837576108366106c7565b5b6000610845848285016107a2565b91505092915050565b6000819050919050565b600061087361086e61086984610759565b61084e565b610759565b9050919050565b600061088582610858565b9050919050565b60006108978261087a565b9050919050565b6108a78161088c565b82525050565b60006020820190506108c2600083018461089e565b92915050565b600082825260208201905092915050565b7f4c696d69742063616e6e6f74206265207a65726f000000000000000000000000600082015250565b600061090f6014836108c8565b915061091a826108d9565b602082019050919050565b6000602082019050818103600083015261093e81610902565b9050919050565b7f52656c656173652074696d6520686173206e6f74206172726976656420796574600082015250565b600061097b6020836108c8565b915061098682610945565b602082019050919050565b600060208201905081810360008301526109aa8161096e565b9050919050565b7f4e487b7100000000000000000000000000000000000000000000000000000000600052601160045260246000fd5b60006109eb826106cc565b91506109f6836106cc565b9250828201905080821115610a0e57610a0d6109b1565b5b92915050565b7f4d6f6e74686c79206c696d697420726561636865640000000000000000000000600082015250565b6000610a4a6015836108c8565b9150610a5582610a14565b602082019050919050565b60006020820190508181036000830152610a7981610a3d565b9050919050565b6000604082019050610a9560008301856107f7565b610aa2602083018461072f565b9392505050565b7f54696d652063616e6e6f74206265207a65726f00000000000000000000000000600082015250565b6000610adf6013836108c8565b9150610aea82610aa9565b602082019050919050565b60006020820190508181036000830152610b0e81610ad2565b9050919050565b7f4f776e61626c653a206e6577206f776e657220697320746865207a65726f206160008201527f6464726573730000000000000000000000000000000000000000000000000000602082015250565b6000610b716026836108c8565b9150610b7c82610b15565b604082019050919050565b60006020820190508181036000830152610ba081610b64565b9050919050565b7f4f776e61626c653a2063616c6c6572206973206e6f7420746865206f776e6572600082015250565b6000610bdd6020836108c8565b9150610be882610ba7565b602082019050919050565b60006020820190508181036000830152610c0c81610bd0565b905091905056fea2646970667358221220b3c0edaf33b466568b76843ba73b8f9049b8cd5de2e4d196573ce52a21f8b9fc64736f6c63430008150033",
  "linkReferences": {},
  "deployedLinkReferences": {}
}