{
  "_format": "hh-sol-artifact-1",
  "contractName": "BGTToken",
  "sourceName": "contracts/BGTToken.sol",
  "abi": [
    {
      "inputs": [],
      "stateMutability": "nonpayable",
      "type": "constructor"
    },
    {
      "anonymous": false,
      "inputs": [
        {
          "indexed": true,
          "internalType": "address",
          "name": "owner",
          "type": "address"
        },
        {
          "indexed": true,
          "internalType": "address",
          "name": "spender",
          "type": "address"
        },
        {
          "indexed": false,
          "internalType": "uint256",
          "name": "value",
          "type": "uint256"
        }
      ],
      "name": "Approval",
      "type": "event"
    },
    {
      "anonymous": false,
      "inputs": [
        {
          "indexed": true,
          "internalType": "address",
          "name": "previousOwner",
          "type": "address"
        },
        {
          "indexed": true,
          "internalType": "address",
          "name": "newOwner",
          "type": "address"
        }
      ],
      "name": "OwnershipTransferred",
      "type": "event"
    },
    {
      "anonymous": false,
      "inputs": [
        {
          "indexed": false,
          "internalType": "address",
          "name": "account",
          "type": "address"
        }
      ],
      "name": "Paused",
      "type": "event"
    },
    {
      "anonymous": false,
      "inputs": [
        {
          "indexed": true,
          "internalType": "address",
          "name": "from",
          "type": "address"
        },
        {
          "indexed": true,
          "internalType": "address",
          "name": "to",
          "type": "address"
        },
        {
          "indexed": false,
          "internalType": "uint256",
          "name": "value",
          "type": "uint256"
        }
      ],
      "name": "Transfer",
      "type": "event"
    },
    {
      "anonymous": false,
      "inputs": [
        {
          "indexed": false,
          "internalType": "address",
          "name": "account",
          "type": "address"
        }
      ],
      "name": "Unpaused",
      "type": "event"
    },
    {
      "inputs": [],
      "name": "allow",
      "outputs": [
        {
          "internalType": "address",
          "name": "",
          "type": "address"
        }
      ],
      "stateMutability": "view",
      "type": "function"
    },
    {
      "inputs": [
        {
          "internalType": "address",
          "name": "addressToAllow",
          "type": "address"
        }
      ],
      "name": "allowAddress",
      "outputs": [],
      "stateMutability": "nonpayable",
      "type": "function"
    },
    {
      "inputs": [
        {
          "internalType": "address",
          "name": "owner",
          "type": "address"
        },
        {
          "internalType": "address",
          "name": "spender",
          "type": "address"
        }
      ],
      "name": "allowance",
      "outputs": [
        {
          "internalType": "uint256",
          "name": "",
          "type": "uint256"
        }
      ],
      "stateMutability": "view",
      "type": "function"
    },
    {
      "inputs": [
        {
          "internalType": "address",
          "name": "spender",
          "type": "address"
        },
        {
          "internalType": "uint256",
          "name": "amount",
          "type": "uint256"
        }
      ],
      "name": "approve",
      "outputs": [
        {
          "internalType": "bool",
          "name": "",
          "type": "bool"
        }
      ],
      "stateMutability": "nonpayable",
      "type": "function"
    },
    {
      "inputs": [
        {
          "internalType": "address",
          "name": "account",
          "type": "address"
        }
      ],
      "name": "balanceOf",
      "outputs": [
        {
          "internalType": "uint256",
          "name": "",
          "type": "uint256"
        }
      ],
      "stateMutability": "view",
      "type": "function"
    },
    {
      "inputs": [
        {
          "internalType": "uint256",
          "name": "value",
          "type": "uint256"
        }
      ],
      "name": "burn",
      "outputs": [],
      "stateMutability": "nonpayable",
      "type": "function"
    },
    {
      "inputs": [
        {
          "internalType": "address",
          "name": "account",
          "type": "address"
        },
        {
          "internalType": "uint256",
          "name": "amount",
          "type": "uint256"
        }
      ],
      "name": "burnFrom",
      "outputs": [],
      "stateMutability": "nonpayable",
      "type": "function"
    },
    {
      "inputs": [],
      "name": "decimals",
      "outputs": [
        {
          "internalType": "uint8",
          "name": "",
          "type": "uint8"
        }
      ],
      "stateMutability": "view",
      "type": "function"
    },
    {
      "inputs": [
        {
          "internalType": "address",
          "name": "spender",
          "type": "address"
        },
        {
          "internalType": "uint256",
          "name": "subtractedValue",
          "type": "uint256"
        }
      ],
      "name": "decreaseAllowance",
      "outputs": [
        {
          "internalType": "bool",
          "name": "",
          "type": "bool"
        }
      ],
      "stateMutability": "nonpayable",
      "type": "function"
    },
    {
      "inputs": [
        {
          "internalType": "address",
          "name": "spender",
          "type": "address"
        },
        {
          "internalType": "uint256",
          "name": "addedValue",
          "type": "uint256"
        }
      ],
      "name": "increaseAllowance",
      "outputs": [
        {
          "internalType": "bool",
          "name": "",
          "type": "bool"
        }
      ],
      "stateMutability": "nonpayable",
      "type": "function"
    },
    {
      "inputs": [],
      "name": "increaseMintLimit",
      "outputs": [],
      "stateMutability": "nonpayable",
      "type": "function"
    },
    {
      "inputs": [
        {
          "internalType": "address",
          "name": "to",
          "type": "address"
        },
        {
          "internalType": "uint256",
          "name": "amount",
          "type": "uint256"
        }
      ],
      "name": "mint",
      "outputs": [],
      "stateMutability": "nonpayable",
      "type": "function"
    },
    {
      "inputs": [],
      "name": "mintLimit",
      "outputs": [
        {
          "internalType": "uint256",
          "name": "",
          "type": "uint256"
        }
      ],
      "stateMutability": "view",
      "type": "function"
    },
    {
      "inputs": [],
      "name": "name",
      "outputs": [
        {
          "internalType": "string",
          "name": "",
          "type": "string"
        }
      ],
      "stateMutability": "view",
      "type": "function"
    },
    {
      "inputs": [],
      "name": "owner",
      "outputs": [
        {
          "internalType": "address",
          "name": "",
          "type": "address"
        }
      ],
      "stateMutability": "view",
      "type": "function"
    },
    {
      "inputs": [],
      "name": "pause",
      "outputs": [],
      "stateMutability": "nonpayable",
      "type": "function"
    },
    {
      "inputs": [],
      "name": "paused",
      "outputs": [
        {
          "internalType": "bool",
          "name": "",
          "type": "bool"
        }
      ],
      "stateMutability": "view",
      "type": "function"
    },
    {
      "inputs": [],
      "name": "renounceOwnership",
      "outputs": [],
      "stateMutability": "nonpayable",
      "type": "function"
    },
    {
      "inputs": [],
      "name": "symbol",
      "outputs": [
        {
          "internalType": "string",
          "name": "",
          "type": "string"
        }
      ],
      "stateMutability": "view",
      "type": "function"
    },
    {
      "inputs": [],
      "name": "totalMinted",
      "outputs": [
        {
          "internalType": "uint256",
          "name": "",
          "type": "uint256"
        }
      ],
      "stateMutability": "view",
      "type": "function"
    },
    {
      "inputs": [],
      "name": "totalSupply",
      "outputs": [
        {
          "internalType": "uint256",
          "name": "",
          "type": "uint256"
        }
      ],
      "stateMutability": "view",
      "type": "function"
    },
    {
      "inputs": [
        {
          "internalType": "address",
          "name": "to",
          "type": "address"
        },
        {
          "internalType": "uint256",
          "name": "amount",
          "type": "uint256"
        }
      ],
      "name": "transfer",
      "outputs": [
        {
          "internalType": "bool",
          "name": "",
          "type": "bool"
        }
      ],
      "stateMutability": "nonpayable",
      "type": "function"
    },
    {
      "inputs": [
        {
          "internalType": "address",
          "name": "from",
          "type": "address"
        },
        {
          "internalType": "address",
          "name": "to",
          "type": "address"
        },
        {
          "internalType": "uint256",
          "name": "amount",
          "type": "uint256"
        }
      ],
      "name": "transferFrom",
      "outputs": [
        {
          "internalType": "bool",
          "name": "",
          "type": "bool"
        }
      ],
      "stateMutability": "nonpayable",
      "type": "function"
    },
    {
      "inputs": [
        {
          "internalType": "address",
          "name": "newOwner",
          "type": "address"
        }
      ],
      "name": "transferOwnership",
      "outputs": [],
      "stateMutability": "nonpayable",
      "type": "function"
    },
    {
      "inputs": [],
      "name": "unpause",
      "outputs": [],
      "stateMutability": "nonpayable",
      "type": "function"
    }
  ],
  "bytecode": "0x60806040523480156200001157600080fd5b506040518060400160405280600981526020017f426f726e477265617400000000000000000000000000000000000000000000008152506040518060400160405280600381526020017f424754000000000000000000000000000000000000000000000000000000000081525081600390816200008f9190620006eb565b508060049081620000a19190620006eb565b5050506000600560006101000a81548160ff021916908315150217905550620000df620000d36200018f60201b60201c565b6200019760201b60201c565b6200011f33620000f46200025d60201b60201c565b600a62000102919062000962565b6307735940620001139190620009b3565b6200026660201b60201c565b6200012f6200025d60201b60201c565b600a6200013d919062000962565b633b9aca006200014e9190620009b3565b600781905550620001646200025d60201b60201c565b600a62000172919062000962565b6307735940620001839190620009b3565b60088190555062000b5c565b600033905090565b6000600560019054906101000a900473ffffffffffffffffffffffffffffffffffffffff16905081600560016101000a81548173ffffffffffffffffffffffffffffffffffffffff021916908373ffffffffffffffffffffffffffffffffffffffff1602179055508173ffffffffffffffffffffffffffffffffffffffff168173ffffffffffffffffffffffffffffffffffffffff167f8be0079c531659141344cd1fd0a4f28419497f9722a3daafe3b4186f6b6457e060405160405180910390a35050565b60006012905090565b600073ffffffffffffffffffffffffffffffffffffffff168273ffffffffffffffffffffffffffffffffffffffff1603620002d8576040517f08c379a0000000000000000000000000000000000000000000000000000000008152600401620002cf9062000a5f565b60405180910390fd5b620002ec60008383620003d360201b60201c565b806002600082825462000300919062000a81565b92505081905550806000808473ffffffffffffffffffffffffffffffffffffffff1673ffffffffffffffffffffffffffffffffffffffff168152602001908152602001600020600082825401925050819055508173ffffffffffffffffffffffffffffffffffffffff16600073ffffffffffffffffffffffffffffffffffffffff167fddf252ad1be2c89b69c2b068fc378daa952ba7f163c4a11628f55a4df523b3ef83604051620003b3919062000acd565b60405180910390a3620003cf60008383620003fb60201b60201c565b5050565b620003e36200040060201b60201c565b620003f68383836200045560201b60201c565b505050565b505050565b620004106200045a60201b60201c565b1562000453576040517f08c379a00000000000000000000000000000000000000000000000000000000081526004016200044a9062000b3a565b60405180910390fd5b565b505050565b6000600560009054906101000a900460ff16905090565b600081519050919050565b7f4e487b7100000000000000000000000000000000000000000000000000000000600052604160045260246000fd5b7f4e487b7100000000000000000000000000000000000000000000000000000000600052602260045260246000fd5b60006002820490506001821680620004f357607f821691505b602082108103620005095762000508620004ab565b5b50919050565b60008190508160005260206000209050919050565b60006020601f8301049050919050565b600082821b905092915050565b600060088302620005737fffffffffffffffffffffffffffffffffffffffffffffffffffffffffffffffff8262000534565b6200057f868362000534565b95508019841693508086168417925050509392505050565b6000819050919050565b6000819050919050565b6000620005cc620005c6620005c08462000597565b620005a1565b62000597565b9050919050565b6000819050919050565b620005e883620005ab565b62000600620005f782620005d3565b84845462000541565b825550505050565b600090565b6200061762000608565b62000624818484620005dd565b505050565b5b818110156200064c57620006406000826200060d565b6001810190506200062a565b5050565b601f8211156200069b5762000665816200050f565b620006708462000524565b8101602085101562000680578190505b620006986200068f8562000524565b83018262000629565b50505b505050565b600082821c905092915050565b6000620006c060001984600802620006a0565b1980831691505092915050565b6000620006db8383620006ad565b9150826002028217905092915050565b620006f68262000471565b67ffffffffffffffff8111156200071257620007116200047c565b5b6200071e8254620004da565b6200072b82828562000650565b600060209050601f8311600181146200076357600084156200074e578287015190505b6200075a8582620006cd565b865550620007ca565b601f19841662000773866200050f565b60005b828110156200079d5784890151825560018201915060208501945060208101905062000776565b86831015620007bd5784890151620007b9601f891682620006ad565b8355505b6001600288020188555050505b505050505050565b7f4e487b7100000000000000000000000000000000000000000000000000000000600052601160045260246000fd5b60008160011c9050919050565b6000808291508390505b60018511156200086057808604811115620008385762000837620007d2565b5b6001851615620008485780820291505b8081029050620008588562000801565b945062000818565b94509492505050565b6000826200087b57600190506200094e565b816200088b57600090506200094e565b8160018114620008a45760028114620008af57620008e5565b60019150506200094e565b60ff841115620008c457620008c3620007d2565b5b8360020a915084821115620008de57620008dd620007d2565b5b506200094e565b5060208310610133831016604e8410600b84101617156200091f5782820a905083811115620009195762000918620007d2565b5b6200094e565b6200092e84848460016200080e565b92509050818404811115620009485762000947620007d2565b5b81810290505b9392505050565b600060ff82169050919050565b60006200096f8262000597565b91506200097c8362000955565b9250620009ab7fffffffffffffffffffffffffffffffffffffffffffffffffffffffffffffffff848462000869565b905092915050565b6000620009c08262000597565b9150620009cd8362000597565b9250828202620009dd8162000597565b91508282048414831517620009f757620009f6620007d2565b5b5092915050565b600082825260208201905092915050565b7f45524332303a206d696e7420746f20746865207a65726f206164647265737300600082015250565b600062000a47601f83620009fe565b915062000a548262000a0f565b602082019050919050565b6000602082019050818103600083015262000a7a8162000a38565b9050919050565b600062000a8e8262000597565b915062000a9b8362000597565b925082820190508082111562000ab65762000ab5620007d2565b5b92915050565b62000ac78162000597565b82525050565b600060208201905062000ae4600083018462000abc565b92915050565b7f5061757361626c653a2070617573656400000000000000000000000000000000600082015250565b600062000b22601083620009fe565b915062000b2f8262000aea565b602082019050919050565b6000602082019050818103600083015262000b558162000b13565b9050919050565b6123f28062000b6c6000396000f3fe608060405234801561001057600080fd5b50600436106101735760003560e01c806370a08231116100de578063996517cf11610097578063a9059cbb11610071578063a9059cbb146103f0578063b1b3d3f614610420578063dd62ed3e1461043e578063f2fde38b1461046e57610173565b8063996517cf14610384578063a2309ff8146103a2578063a457c2d7146103c057610173565b806370a08231146102e8578063715018a61461031857806379cc6790146103225780638456cb591461033e5780638da5cb5b1461034857806395d89b411461036657610173565b80633950935111610130578063395093511461024e5780633c779cf81461027e5780633f4ba83a1461028857806340c10f191461029257806342966c68146102ae5780635c975abb146102ca57610173565b806306fdde031461017857806308af4d8814610196578063095ea7b3146101b257806318160ddd146101e257806323b872dd14610200578063313ce56714610230575b600080fd5b61018061048a565b60405161018d9190611646565b60405180910390f35b6101b060048036038101906101ab91906116cb565b61051c565b005b6101cc60048036038101906101c7919061172e565b610568565b6040516101d99190611789565b60405180910390f35b6101ea61058b565b6040516101f791906117b3565b60405180910390f35b61021a600480360381019061021591906117ce565b610595565b6040516102279190611789565b60405180910390f35b6102386105c4565b604051610245919061183d565b60405180910390f35b6102686004803603810190610263919061172e565b6105cd565b6040516102759190611789565b60405180910390f35b610286610604565b005b610290610637565b005b6102ac60048036038101906102a7919061172e565b610649565b005b6102c860048036038101906102c39190611858565b61075a565b005b6102d2610787565b6040516102df9190611789565b60405180910390f35b61030260048036038101906102fd91906116cb565b61079e565b60405161030f91906117b3565b60405180910390f35b6103206107e6565b005b61033c6004803603810190610337919061172e565b6107fa565b005b610346610829565b005b61035061083b565b60405161035d9190611894565b60405180910390f35b61036e610865565b60405161037b9190611646565b60405180910390f35b61038c6108f7565b60405161039991906117b3565b60405180910390f35b6103aa6108fd565b6040516103b791906117b3565b60405180910390f35b6103da60048036038101906103d5919061172e565b610903565b6040516103e79190611789565b60405180910390f35b61040a6004803603810190610405919061172e565b61097a565b6040516104179190611789565b60405180910390f35b61042861099d565b6040516104359190611894565b60405180910390f35b610458600480360381019061045391906118af565b6109c3565b60405161046591906117b3565b60405180910390f35b610488600480360381019061048391906116cb565b610a4a565b005b6060600380546104999061191e565b80601f01602080910402602001604051908101604052809291908181526020018280546104c59061191e565b80156105125780601f106104e757610100808354040283529160200191610512565b820191906000526020600020905b8154815290600101906020018083116104f557829003601f168201915b5050505050905090565b610524610acd565b80600660006101000a81548173ffffffffffffffffffffffffffffffffffffffff021916908373ffffffffffffffffffffffffffffffffffffffff16021790555050565b600080610573610b4b565b9050610580818585610b53565b600191505092915050565b6000600254905090565b6000806105a0610b4b565b90506105ad858285610d1c565b6105b8858585610da8565b60019150509392505050565b60006012905090565b6000806105d8610b4b565b90506105f98185856105ea85896109c3565b6105f4919061197e565b610b53565b600191505092915050565b61060c610acd565b6106146105c4565b600a6106209190611ae5565b637735940061062f9190611b30565b600781905550565b61063f610acd565b61064761101e565b565b610651611081565b600660009054906101000a900473ffffffffffffffffffffffffffffffffffffffff1673ffffffffffffffffffffffffffffffffffffffff163373ffffffffffffffffffffffffffffffffffffffff16146106e1576040517f08c379a00000000000000000000000000000000000000000000000000000000081526004016106d890611bbe565b60405180910390fd5b600754816008546106f2919061197e565b1115610733576040517f08c379a000000000000000000000000000000000000000000000000000000000815260040161072a90611c2a565b60405180910390fd5b61073d82826110cb565b806008600082825461074f919061197e565b925050819055505050565b610762611081565b61076b81611221565b806008600082825461077d9190611c4a565b9250508190555050565b6000600560009054906101000a900460ff16905090565b60008060008373ffffffffffffffffffffffffffffffffffffffff1673ffffffffffffffffffffffffffffffffffffffff168152602001908152602001600020549050919050565b6107ee610acd565b6107f86000611235565b565b610802611081565b61080c82826112fb565b806008600082825461081e9190611c4a565b925050819055505050565b610831610acd565b61083961131b565b565b6000600560019054906101000a900473ffffffffffffffffffffffffffffffffffffffff16905090565b6060600480546108749061191e565b80601f01602080910402602001604051908101604052809291908181526020018280546108a09061191e565b80156108ed5780601f106108c2576101008083540402835291602001916108ed565b820191906000526020600020905b8154815290600101906020018083116108d057829003601f168201915b5050505050905090565b60075481565b60085481565b60008061090e610b4b565b9050600061091c82866109c3565b905083811015610961576040517f08c379a000000000000000000000000000000000000000000000000000000000815260040161095890611cf0565b60405180910390fd5b61096e8286868403610b53565b60019250505092915050565b600080610985610b4b565b9050610992818585610da8565b600191505092915050565b600660009054906101000a900473ffffffffffffffffffffffffffffffffffffffff1681565b6000600160008473ffffffffffffffffffffffffffffffffffffffff1673ffffffffffffffffffffffffffffffffffffffff16815260200190815260200160002060008373ffffffffffffffffffffffffffffffffffffffff1673ffffffffffffffffffffffffffffffffffffffff16815260200190815260200160002054905092915050565b610a52610acd565b600073ffffffffffffffffffffffffffffffffffffffff168173ffffffffffffffffffffffffffffffffffffffff1603610ac1576040517f08c379a0000000000000000000000000000000000000000000000000000000008152600401610ab890611d82565b60405180910390fd5b610aca81611235565b50565b610ad5610b4b565b73ffffffffffffffffffffffffffffffffffffffff16610af361083b565b73ffffffffffffffffffffffffffffffffffffffff1614610b49576040517f08c379a0000000000000000000000000000000000000000000000000000000008152600401610b4090611dee565b60405180910390fd5b565b600033905090565b600073ffffffffffffffffffffffffffffffffffffffff168373ffffffffffffffffffffffffffffffffffffffff1603610bc2576040517f08c379a0000000000000000000000000000000000000000000000000000000008152600401610bb990611e80565b60405180910390fd5b600073ffffffffffffffffffffffffffffffffffffffff168273ffffffffffffffffffffffffffffffffffffffff1603610c31576040517f08c379a0000000000000000000000000000000000000000000000000000000008152600401610c2890611f12565b60405180910390fd5b80600160008573ffffffffffffffffffffffffffffffffffffffff1673ffffffffffffffffffffffffffffffffffffffff16815260200190815260200160002060008473ffffffffffffffffffffffffffffffffffffffff1673ffffffffffffffffffffffffffffffffffffffff168152602001908152602001600020819055508173ffffffffffffffffffffffffffffffffffffffff168373ffffffffffffffffffffffffffffffffffffffff167f8c5be1e5ebec7d5bd14f71427d1e84f3dd0314c0f7b2291e5b200ac8c7c3b92583604051610d0f91906117b3565b60405180910390a3505050565b6000610d2884846109c3565b90507fffffffffffffffffffffffffffffffffffffffffffffffffffffffffffffffff8114610da25781811015610d94576040517f08c379a0000000000000000000000000000000000000000000000000000000008152600401610d8b90611f7e565b60405180910390fd5b610da18484848403610b53565b5b50505050565b600073ffffffffffffffffffffffffffffffffffffffff168373ffffffffffffffffffffffffffffffffffffffff1603610e17576040517f08c379a0000000000000000000000000000000000000000000000000000000008152600401610e0e90612010565b60405180910390fd5b600073ffffffffffffffffffffffffffffffffffffffff168273ffffffffffffffffffffffffffffffffffffffff1603610e86576040517f08c379a0000000000000000000000000000000000000000000000000000000008152600401610e7d906120a2565b60405180910390fd5b610e9183838361137e565b60008060008573ffffffffffffffffffffffffffffffffffffffff1673ffffffffffffffffffffffffffffffffffffffff16815260200190815260200160002054905081811015610f17576040517f08c379a0000000000000000000000000000000000000000000000000000000008152600401610f0e90612134565b60405180910390fd5b8181036000808673ffffffffffffffffffffffffffffffffffffffff1673ffffffffffffffffffffffffffffffffffffffff16815260200190815260200160002081905550816000808573ffffffffffffffffffffffffffffffffffffffff1673ffffffffffffffffffffffffffffffffffffffff168152602001908152602001600020600082825401925050819055508273ffffffffffffffffffffffffffffffffffffffff168473ffffffffffffffffffffffffffffffffffffffff167fddf252ad1be2c89b69c2b068fc378daa952ba7f163c4a11628f55a4df523b3ef8460405161100591906117b3565b60405180910390a3611018848484611396565b50505050565b61102661139b565b6000600560006101000a81548160ff0219169083151502179055507f5db9ee0a495bf2e6ff9c91a7834c1ba4fdd244a5e8aa4e537bd38aeae4b073aa61106a610b4b565b6040516110779190611894565b60405180910390a1565b611089610787565b156110c9576040517f08c379a00000000000000000000000000000000000000000000000000000000081526004016110c0906121a0565b60405180910390fd5b565b600073ffffffffffffffffffffffffffffffffffffffff168273ffffffffffffffffffffffffffffffffffffffff160361113a576040517f08c379a00000000000000000000000000000000000000000000000000000000081526004016111319061220c565b60405180910390fd5b6111466000838361137e565b8060026000828254611158919061197e565b92505081905550806000808473ffffffffffffffffffffffffffffffffffffffff1673ffffffffffffffffffffffffffffffffffffffff168152602001908152602001600020600082825401925050819055508173ffffffffffffffffffffffffffffffffffffffff16600073ffffffffffffffffffffffffffffffffffffffff167fddf252ad1be2c89b69c2b068fc378daa952ba7f163c4a11628f55a4df523b3ef8360405161120991906117b3565b60405180910390a361121d60008383611396565b5050565b61123261122c610b4b565b826113e4565b50565b6000600560019054906101000a900473ffffffffffffffffffffffffffffffffffffffff16905081600560016101000a81548173ffffffffffffffffffffffffffffffffffffffff021916908373ffffffffffffffffffffffffffffffffffffffff1602179055508173ffffffffffffffffffffffffffffffffffffffff168173ffffffffffffffffffffffffffffffffffffffff167f8be0079c531659141344cd1fd0a4f28419497f9722a3daafe3b4186f6b6457e060405160405180910390a35050565b61130d82611307610b4b565b83610d1c565b61131782826113e4565b5050565b611323611081565b6001600560006101000a81548160ff0219169083151502179055507f62e78cea01bee320cd4e420270b5ea74000d11b0c9f74754ebdbfc544b05a258611367610b4b565b6040516113749190611894565b60405180910390a1565b611386611081565b6113918383836115b1565b505050565b505050565b6113a3610787565b6113e2576040517f08c379a00000000000000000000000000000000000000000000000000000000081526004016113d990612278565b60405180910390fd5b565b600073ffffffffffffffffffffffffffffffffffffffff168273ffffffffffffffffffffffffffffffffffffffff1603611453576040517f08c379a000000000000000000000000000000000000000000000000000000000815260040161144a9061230a565b60405180910390fd5b61145f8260008361137e565b60008060008473ffffffffffffffffffffffffffffffffffffffff1673ffffffffffffffffffffffffffffffffffffffff168152602001908152602001600020549050818110156114e5576040517f08c379a00000000000000000000000000000000000000000000000000000000081526004016114dc9061239c565b60405180910390fd5b8181036000808573ffffffffffffffffffffffffffffffffffffffff1673ffffffffffffffffffffffffffffffffffffffff1681526020019081526020016000208190555081600260008282540392505081905550600073ffffffffffffffffffffffffffffffffffffffff168373ffffffffffffffffffffffffffffffffffffffff167fddf252ad1be2c89b69c2b068fc378daa952ba7f163c4a11628f55a4df523b3ef8460405161159891906117b3565b60405180910390a36115ac83600084611396565b505050565b505050565b600081519050919050565b600082825260208201905092915050565b60005b838110156115f05780820151818401526020810190506115d5565b60008484015250505050565b6000601f19601f8301169050919050565b6000611618826115b6565b61162281856115c1565b93506116328185602086016115d2565b61163b816115fc565b840191505092915050565b60006020820190508181036000830152611660818461160d565b905092915050565b600080fd5b600073ffffffffffffffffffffffffffffffffffffffff82169050919050565b60006116988261166d565b9050919050565b6116a88161168d565b81146116b357600080fd5b50565b6000813590506116c58161169f565b92915050565b6000602082840312156116e1576116e0611668565b5b60006116ef848285016116b6565b91505092915050565b6000819050919050565b61170b816116f8565b811461171657600080fd5b50565b60008135905061172881611702565b92915050565b6000806040838503121561174557611744611668565b5b6000611753858286016116b6565b925050602061176485828601611719565b9150509250929050565b60008115159050919050565b6117838161176e565b82525050565b600060208201905061179e600083018461177a565b92915050565b6117ad816116f8565b82525050565b60006020820190506117c860008301846117a4565b92915050565b6000806000606084860312156117e7576117e6611668565b5b60006117f5868287016116b6565b9350506020611806868287016116b6565b925050604061181786828701611719565b9150509250925092565b600060ff82169050919050565b61183781611821565b82525050565b6000602082019050611852600083018461182e565b92915050565b60006020828403121561186e5761186d611668565b5b600061187c84828501611719565b91505092915050565b61188e8161168d565b82525050565b60006020820190506118a96000830184611885565b92915050565b600080604083850312156118c6576118c5611668565b5b60006118d4858286016116b6565b92505060206118e5858286016116b6565b9150509250929050565b7f4e487b7100000000000000000000000000000000000000000000000000000000600052602260045260246000fd5b6000600282049050600182168061193657607f821691505b602082108103611949576119486118ef565b5b50919050565b7f4e487b7100000000000000000000000000000000000000000000000000000000600052601160045260246000fd5b6000611989826116f8565b9150611994836116f8565b92508282019050808211156119ac576119ab61194f565b5b92915050565b60008160011c9050919050565b6000808291508390505b6001851115611a09578086048111156119e5576119e461194f565b5b60018516156119f45780820291505b8081029050611a02856119b2565b94506119c9565b94509492505050565b600082611a225760019050611ade565b81611a305760009050611ade565b8160018114611a465760028114611a5057611a7f565b6001915050611ade565b60ff841115611a6257611a6161194f565b5b8360020a915084821115611a7957611a7861194f565b5b50611ade565b5060208310610133831016604e8410600b8410161715611ab45782820a905083811115611aaf57611aae61194f565b5b611ade565b611ac184848460016119bf565b92509050818404811115611ad857611ad761194f565b5b81810290505b9392505050565b6000611af0826116f8565b9150611afb83611821565b9250611b287fffffffffffffffffffffffffffffffffffffffffffffffffffffffffffffffff8484611a12565b905092915050565b6000611b3b826116f8565b9150611b46836116f8565b9250828202611b54816116f8565b91508282048414831517611b6b57611b6a61194f565b5b5092915050565b7f4e6f7420616c6c6f77656420746f206d696e7400000000000000000000000000600082015250565b6000611ba86013836115c1565b9150611bb382611b72565b602082019050919050565b60006020820190508181036000830152611bd781611b9b565b9050919050565b7f4d696e74206c696d697420657863656564656400000000000000000000000000600082015250565b6000611c146013836115c1565b9150611c1f82611bde565b602082019050919050565b60006020820190508181036000830152611c4381611c07565b9050919050565b6000611c55826116f8565b9150611c60836116f8565b9250828203905081811115611c7857611c7761194f565b5b92915050565b7f45524332303a2064656372656173656420616c6c6f77616e63652062656c6f7760008201527f207a65726f000000000000000000000000000000000000000000000000000000602082015250565b6000611cda6025836115c1565b9150611ce582611c7e565b604082019050919050565b60006020820190508181036000830152611d0981611ccd565b9050919050565b7f4f776e61626c653a206e6577206f776e657220697320746865207a65726f206160008201527f6464726573730000000000000000000000000000000000000000000000000000602082015250565b6000611d6c6026836115c1565b9150611d7782611d10565b604082019050919050565b60006020820190508181036000830152611d9b81611d5f565b9050919050565b7f4f776e61626c653a2063616c6c6572206973206e6f7420746865206f776e6572600082015250565b6000611dd86020836115c1565b9150611de382611da2565b602082019050919050565b60006020820190508181036000830152611e0781611dcb565b9050919050565b7f45524332303a20617070726f76652066726f6d20746865207a65726f2061646460008201527f7265737300000000000000000000000000000000000000000000000000000000602082015250565b6000611e6a6024836115c1565b9150611e7582611e0e565b604082019050919050565b60006020820190508181036000830152611e9981611e5d565b9050919050565b7f45524332303a20617070726f766520746f20746865207a65726f20616464726560008201527f7373000000000000000000000000000000000000000000000000000000000000602082015250565b6000611efc6022836115c1565b9150611f0782611ea0565b604082019050919050565b60006020820190508181036000830152611f2b81611eef565b9050919050565b7f45524332303a20696e73756666696369656e7420616c6c6f77616e6365000000600082015250565b6000611f68601d836115c1565b9150611f7382611f32565b602082019050919050565b60006020820190508181036000830152611f9781611f5b565b9050919050565b7f45524332303a207472616e736665722066726f6d20746865207a65726f20616460008201527f6472657373000000000000000000000000000000000000000000000000000000602082015250565b6000611ffa6025836115c1565b915061200582611f9e565b604082019050919050565b6000602082019050818103600083015261202981611fed565b9050919050565b7f45524332303a207472616e7366657220746f20746865207a65726f206164647260008201527f6573730000000000000000000000000000000000000000000000000000000000602082015250565b600061208c6023836115c1565b915061209782612030565b604082019050919050565b600060208201905081810360008301526120bb8161207f565b9050919050565b7f45524332303a207472616e7366657220616d6f756e742065786365656473206260008201527f616c616e63650000000000000000000000000000000000000000000000000000602082015250565b600061211e6026836115c1565b9150612129826120c2565b604082019050919050565b6000602082019050818103600083015261214d81612111565b9050919050565b7f5061757361626c653a2070617573656400000000000000000000000000000000600082015250565b600061218a6010836115c1565b915061219582612154565b602082019050919050565b600060208201905081810360008301526121b98161217d565b9050919050565b7f45524332303a206d696e7420746f20746865207a65726f206164647265737300600082015250565b60006121f6601f836115c1565b9150612201826121c0565b602082019050919050565b60006020820190508181036000830152612225816121e9565b9050919050565b7f5061757361626c653a206e6f7420706175736564000000000000000000000000600082015250565b60006122626014836115c1565b915061226d8261222c565b602082019050919050565b6000602082019050818103600083015261229181612255565b9050919050565b7f45524332303a206275726e2066726f6d20746865207a65726f2061646472657360008201527f7300000000000000000000000000000000000000000000000000000000000000602082015250565b60006122f46021836115c1565b91506122ff82612298565b604082019050919050565b60006020820190508181036000830152612323816122e7565b9050919050565b7f45524332303a206275726e20616d6f756e7420657863656564732062616c616e60008201527f6365000000000000000000000000000000000000000000000000000000000000602082015250565b60006123866022836115c1565b91506123918261232a565b604082019050919050565b600060208201905081810360008301526123b581612379565b905091905056fea264697066735822122096cddaf1d595f2e95dac98f8270309f5758745429a57632aa67804d76eef12bc64736f6c63430008150033",
  "linkReferences": {},
  "deployedLinkReferences": {}
}